:100000000C94CC090C94130A0C94130A0C94130A44
:100010000C94130A0C94130A0C94130A0C94130AEC
:100020000C94130A0C94130A0C94EF240C94C2251C
:100030000C94FD1B0C94130A0C94130A0C94130AD1
:100040000C94130A0C94130A0C94130A0C94130ABC
:100050000C94130A0C945E1C0C94130A0C94130A4F
:100060000C94130A0C94130A0C94130A0C94130A9C
:100070000C94130A0C94130A0C94130A0C94130A8C
:100080000C94130A0C94130A0C94130A0C94130A7C
:100090000C94130A0C94130A0C94130A0C94130A6C
:1000A0000C94130A0C94130A0C94130A29000000F0
:1000B0003A003B003C003D003E003F004000410054
:1000C000420043004400450000004600470048004D
:1000D0000000680069006A006B0035001E001F0008
:1000E00020002100220023002400250026002700F4
:1000F0002D002E0000002A0049004A004B0000009D
:1001000053005400550056002B00000014001A0044
:100110000800150017001C0018000C001200130046
:100120002F00300031004C004D004E0000005F00F9
:1001300060006100000039000000040016000700A4
:1001400009000A000B000D000E000F003300340000
:100150002800000000000000000000005C005D00BE
:100160005E0057000000E1001D001B0006001900A2
:100170000500110010003600370038000000E100D3
:100180000000000052000000000059005A005B000F
:100190000000E000E3000000E200000000002C008E
:1001A000000000000000E200015100006500E000D6
:1001B000500051004F000000620000006300580032
:1001C0000100000001000100010001000100010028
:1001D0000100010001000100010001000000010018
:1001E0000100010000000100010001000100007099
:1001F00001000100010001000100010001000100F7
:100200000100A800AA00A9000000010001000100EF
:1002100001000000010001000100010001000000D8
:1002200001000100010001000100010001000100C6
:1002300001000100010001000100010001000100B6
:1002400000000100010001000000010000000100A9
:100250000100010001000100010001000100010096
:10026000010001000100000000000000000000008B
:100270000100010001000100000001000100010077
:100280000100010001000100010001000100010066
:10029000000001000000000001000000000001005B
:1002A0000100010000000100010000000100000049
:1002B000000001000000000000000100010000003B
:1002C0000100010001000100010000000100000028
:1002D0000100010001000000010001000100010017
:1002E0000100010001000100010001000100010006
:1002F00000000100010001000000010001000100F8
:1003000001000100010001000100010001000100E5
:1003100001000100010001000100010000000100D6
:1003200001000100010000000100010001000100C6
:1003300001000000010001000100010001000100B6
:1003400001000100010001000100010001000100A5
:100350000100010000000100010001000000010097
:100360000000010001000100010001000100010086
:100370000100010001000100010000000000000078
:100380000000000001000100010001000000010068
:100390000100010001000100010001000100010055
:1003A0000100010000000100000000000100000049
:1003B0000000010001000100000001000100000038
:1003C000010000000000010000000000000001002A
:1003D0000100000001000100010001000100000017
:1003E0000100000001000100010000000100010007
:1003F00001000100010001000100010001000100F5
:1004000001000100000001000100010000000100E6
:1004100001000100010001000100010001000100D4
:1004200001000100010001000100010001000100C4
:1004300000000100010001000100000001000100B6
:1004400001000100010000000100010001000100A5
:100450000100010001000100010001000100010094
:100460000100010001000100000001000100010085
:100470000000010000000100010001000100010076
:100480000100010001000100010001000100000065
:100490000000000000000000010001000100010058
:1004A0000000010001000100010001000100010045
:1004B0000100010001000100000001000000000037
:1004C0000100000000000100010001000000010027
:1004D0000100000001000000000001000000000019
:1004E0000000010001000000010001000100010006
:1004F00001000000010000000100010001000000F7
:1005000001000100010001000100010001000100E3
:1005100001000100010001000000010001000100D4
:1005200000000100010001000100010001000100C4
:1005300001000100010001000100010001000100B3
:1005400001000100000001000100010001000000A5
:100550000100010001000100010000000100010094
:100560000100010001000100010001000100010083
:100570000100010001000100010001000000010074
:100580000100010000000100000001000100010065
:100590000100010001000100010001000100010053
:1005A0000100000000000000000000000100010048
:1005B0000100010000000100010001000100010034
:1005C0000100010001000100010001000000010024
:1005D0000000000001000000000001000100010017
:1005E0000000010001000000010000000000010007
:1005F00000000000000001000100000001000100F7
:1006000001000100010000000100000001000100E4
:1006100001000000010001000100010001000100D3
:1006200001000100010001000100010000000100C3
:1006300001000100000001000100010001000100B3
:1006400001000100010001000100010001000100A2
:100650000100010001000100000001000100010093
:100660000100000001000100010001000100000084
:100670000100010001000100010001000100010072
:100680000100010001000100010001000100010062
:100690000000010001000100000001000000010055
:1006A0000100010001000100010001000100010042
:1006B0000100010001000000000000000000000037
:1006C0000100010001000100000001000100010023
:1006D0000100010001000100010001000100010012
:1006E0000000010000000000010000000000010007
:1006F00001000100000001000100000001000000F5
:1007000000000100000000000000010001000000E6
:1007100001000100010001000100000001000000D3
:1007200001000100010000000100010001000100C2
:1007300001000100010001000100010001000100B1
:1007400000000100010001000000010001000100A3
:100750000100010001000100010001000100010091
:100760000100010001000100010001000000010082
:100770000100010001000000010001000100010072
:100780000100000001000100010001000100010062
:100790000100010001000100010001000100010051
:1007A0000100010000000100010001000000010043
:1007B0000000010001000100010001000100010032
:1007C0000100010001000100010000000000000024
:1007D0000000000001000100010001000000010014
:1007E0000100010001000100010001000100010001
:1007F00001000100000001000000000001000000F5
:1008000000000100010001000000010001000000E3
:1008100001000000000001000000000000000100D5
:1008200001000000010001000100010001000000C2
:1008300001000000010001000100000001000100B2
:1008400001000100010001000100010001000100A0
:100850000100010000000100010001000000010092
:100860000100010001000100010001000100010080
:100870000100010001000100010001000100010070
:100880000000010001000100010000000100010062
:100890000100010001000000010001000100010051
:1008A0000100010001000100010001000100010040
:1008B0000100010001000100000001000100010031
:1008C0000000010000000100010001000100010022
:1008D0000100010001000100010001000100000011
:1008E0000000000000000000010001000100010004
:1008F00000000100010001000100010001000100F1
:1009000001000100010001000000010000000000E2
:1009100001000000000001000100010000000100D2
:1009200001000000010000000000010000000000C4
:1009300000000100010000000100010001000100B1
:1009400001000000010000000100010001000000A2
:10095000010001000100010001000100010001008F
:100960000100010001000100000001000100010080
:100970000000010001000100010001000100010070
:10098000010001000100010001000100010001005F
:100990000100010000000100010001000100000051
:1009A0000100010001000100010000000100010040
:1009B000010001000100010001000100010001002F
:1009C0000100010001000100010001000000010020
:1009D0000100010000000100000001000100010011
:1009E00001000100010001000100010001000100FF
:1009F00001000000000000000000000001000100F4
:100A000001000100000001000100010001000100DF
:100A100001000100010001000100010000000100CF
:100A200000000000010000000000010001000100C2
:100A300000000100010000000100000000000100B2
:100A400000000000000001000100000001000100A2
:100A50000100010001000000010000000100010090
:100A6000010000000100010001000100010001007F
:100A7000010001000100010001000100000001006F
:100A8000010001000000010001000100010001005F
:100A9000010001000100010001000100010001004E
:100AA000010001000100010000000100010001003F
:100AB0000100000001000100010001000100000030
:100AC000010001000100010001000100010001001E
:100AD000010001000100010001000100010001000E
:100AE0000000010001000100000001000000010001
:100AF00001000100010001000100010001000100EE
:100B000001000100010000000000000000000000E2
:100B100001000100010001000000010001000100CE
:100B200001000100010001000100010001000100BD
:100B300000000100000000000100000000000100B2
:100B400001000100000001000100000001000000A0
:100B50000000010000000000000001000100000092
:100B6000010001000100010001000000010000007F
:100B7000010001000100000001000100010001006E
:100B8000010001000100010001000100010001005D
:100B9000000001000100010000000100010001004F
:100BA000010001000100010001000100010001003D
:100BB000010001000100010001000100000001002E
:100BC000010001000100000001000100010001001E
:100BD000010000000100010001000100010001000E
:100BE00001000100010001000100010001000100FD
:100BF00001000100000001000100010000000100EF
:100C000000000100010001000100010001000100DD
:100C100001000100010001000100000000000000CF
:100C200000000000010001000100010000000100BF
:100C300001000100010001000100010001000100AC
:100C400001000100000001000000000001000000A0
:100C5000000001000100010000000100010000008F
:100C60000100000000000100000000000000010081
:100C7000010000000100010001000100010000006E
:100C8000010000000100010001000000010001005E
:100C9000010001000100010001000100010001004C
:100CA000010001000000010001000100000001003E
:100CB000010001000100010001000100010001002C
:100CC000010001000100010001000100010001001C
:100CD000000001000100010001000000010001000E
:100CE00001000100010000000100010001000100FD
:100CF00001000100010001000100010001000100EC
:100D000001000100010001000000010001000100DC
:100D100000000100000001000100010001000100CD
:100D200001000100010001000100010001000000BC
:100D300000000000000000000100010001000100AF
:100D4000000001000100010001000100010001009C
:100D5000010001000100010000000100000000008E
:100D6000010000000000010001000100000001007E
:100D70000100000001000000000001000000000070
:100D8000000001000100000001000100010001005D
:100D9000010000000100000001000100010000004E
:100DA000010001000100010001000100010001003B
:100DB000010001000100010000000100010001002C
:100DC000000001000100010001000100010001001C
:100DD000010001000100010001000100010001000B
:100DE00001000100000001000100010001000000FD
:100DF00001000100010001000100000001000100EC
:100E000001000100010001000100010001000100DA
:100E100001000100010001000100010000000100CB
:100E200001000100000001000000010001000100BC
:100E300001000100010001000100010001000100AA
:100E4000010000000000000000000000010001009F
:100E5000010001000000010001000100010001008B
:100E6000010001000100010001000100000001007B
:100E7000000000000100000000000100010001006E
:100E8000000001000100000001000000000001005E
:100E9000000000000000010001000000010001004E
:100EA000010001000100000001000000010001003C
:100EB000010000000100010001000100010001002B
:100EC000010001000100010001000100000001001B
:100ED000010001000000010001000100010001000B
:100EE00001000100010001000100010001000100FA
:100EF00001000100010001000000010001000100EB
:100F000001000000010001000100010001000000DB
:100F100001000100010001000100010001000100C9
:100F200001000100010001000100010001000100B9
:100F300000000100010001000000010000000100AC
:100F40000100010001000100010001000100010099
:100F5000010001000100000000000000000000008E
:100F6000010001000100010000000100010001007A
:100F70000100010001000100010001000100010069
:100F8000000001000000000001000000000001005E
:100F9000010001000000010001000000010000004C
:100FA000000001000000000000000100010000003E
:100FB000010001000100010001000000010000002B
:100FC000010001000100000001000100010001001A
:100FD0000100010001000100010001000100010009
:100FE00000000100010001000000010001000100FB
:100FF00001000100010001000100010001000100E9
:1010000001000100010001000100010000000100D9
:1010100001000100010000000100010001000100C9
:1010200001000000010001000100010001000100B9
:1010300001000100010001000100010001000100A8
:10104000010001000000010001000100000001009A
:101050000000010001000100010001000100010089
:10106000010001000100010001000000000000007B
:10107000000000000100010001000100000001006B
:101080000100010001000100010001000100010058
:10109000010001000000010000000000010000004C
:1010A000000001000100010000000100010000003B
:1010B000010000000000010000000000000001002D
:1010C000010000000100010001000100010000001A
:1010D000010000000100010001000000010001000A
:1010E00001000100010001000100010001000100F8
:1010F00001000100000001000100010000000100EA
:1011000001000100010001000100010001000100D7
:1011100001000100010001000100010001000100C7
:1011200000000100010001000100000001000100B9
:1011300001000100010000000100010001000100A8
:101140000100010001000100010001000100010097
:101150000100010001000100000001000100010088
:101160000000010000000100010001000100010079
:101170000100010001000100010001000100000068
:10118000000000000000000001000100010001005B
:101190000000010001000100010001000100010048
:1011A000010001000100010000000100000000003A
:1011B000010000000000010001000100000001002A
:1011C000010000000100000000000100000000001C
:1011D0000000010001000000010001000100010009
:1011E00001000000010000000100010012036B007B
:1011F0006500790062006F00610072006400000009
:10120000160371006D006B006200750069006C00D0
:1012100064006500720000000403090409026D0007
:10122000040100A0FA0904000001030101000921E2
:10123000110100012240000705810308000A09048A
:1012400001000103010200092111010001224D00EA
:101250000705820308000A090402000103000000D8
:101260000921110100012236000705830308000A45
:1012700009040300010300000009211101000122FB
:10128000390007058403200001120110010000004D
:1012900008EDFE606001000102000105010906A1E0
:1012A00001050719E029E715002501950875018159
:1012B0000205081901290595057501910295017529
:1012C0000391010507190029F71500250195F87507
:1012D000018102C005010980A101850216010026D5
:1012E00003001A81002A8300751095018100C00552
:1012F0000C0901A1018503160100269C021A0100B8
:101300002A9C02751095018100C005010902A10106
:101310000901A100050919012905150025019505F7
:1013200075018102950175038101050109300931BB
:101330001581257F95027508810609381581257F5D
:10134000950175088106050C0A38021581257F95DF
:101350000175088106C0C005010906A1010507192C
:10136000E029E715002501950875018102950175B1
:101370000881010508190129059505750191029556
:1013800001750391010507190029FF150026FF00CB
:10139000950675088100C00011241FBECFEFDAE06A
:1013A000DEBFCDBF04B603FE27C08091A802909196
:1013B000A902A091AA02B091AB028730904BA7403E
:1013C000B04BD1F41092A8021092A9021092AA0276
:1013D0001092AB0214BE84B7877F84BF0FB6F89417
:1013E000A8958091600088618093600010926000F1
:1013F0000FBEE0E0F8E3099511E0A0E0B1E0EEE512
:10140000F2E502C005900D92A434B107D9F722E0AD
:10141000A4E4B1E001C01D92A83AB207E1F70E942E
:1014200045220C9401290C94000090E080E008957E
:101430000895089581E00895089581E008950C9439
:101440001A0A0E943E142FEF84E39CE02150804052
:101450009040E1F700C000000C94811CEF92FF92D5
:101460000F931F93CF93DF938C01FC01E080F180F9
:101470008091A801811140C082818823C1F1C701F8
:101480000E94C319C82F682FC7010E946C19B701A9
:101490008C2F0E94660BEC01B8010E941F0A882362
:1014A00009F44BC0B801CE010E946F0D882309F4E6
:1014B00044C0C531F0E7DF0720F5C23080E7D80728
:1014C00008F04DC0C115E0E7DE0791F1C130D0470B
:1014D000E1F181E08093460180934701C801DF91EB
:1014E000CF911F910F91FF90EF900C941D0AC701AF
:1014F0000E949A19C82FCBCFC7010E94C319B70108
:10150000C8CFCC3380E7D80709F49BC0CD33D04790
:1015100001F7F8018281882309F4BAC010924701CB
:101520000E942D1C909345018093440180E296C057
:10153000F801828181110E94210A80E0DF91CF9120
:101540001F910F91FF90EF900895F80182818823F9
:10155000A1F380916802816080936802EECFF80168
:101560008281882309F4BACF0E947E1B811102C0B8
:101570000E94641B0E949B1B90E090939A028093B0
:101580009902FE01E350F047809199028160E231B7
:10159000F10538F4ED5FF64D0C94B1288091990275
:1015A000826080939902809199020E949F1B0E9401
:1015B0003E14C3CF809199028460F3CF8091990249
:1015C0008860EFCF809199028061EBCF8091990282
:1015D0008062E7CF809199028064E3CF8091990285
:1015E0008068DFCF809199028C60DBCF8091990277
:1015F0008E7FD7CF809199028D7FD3CF8091990232
:101600008B7FCFCF80919902877FCBCF809199023A
:101610008F7EC7CF809199028F7DC3CF8091990231
:101620008F7BBFCF809199028F77BBCF809199023A
:10163000837FB7CF90919902892F97FB87F98058C4
:10164000B0CFF8018281882361F0109246010E9498
:101650002D1C909345018093440182E00E94A311C8
:101660006CCF8091460181110FC08091440190910F
:1016700045010E94391C883C910530F486E20E94A5
:10168000781086E20E94541182E00E94AA1155CF80
:101690008091470181110FC08091440190914501D3
:1016A0000E94391C883C910530F487E20E94781032
:1016B00087E20E94541180E2E8CF0C94BE0D0C9496
:1016C000C00D0C941C0A0C94610B0895972F70E0C8
:1016D00027E1929F600D711D1124FB019AE8899FFB
:1016E000E00DF11D1124EE0FFF1FE455FF4F859112
:1016F00094910895FC01EE0FFF1FE451FE4E859179
:10170000949108950E94660B0E94F30C9C01811530
:1017100040E4940708F097C0211580E3380708F0EB
:10172000FAC0203E310508F074C0203C310508F0B5
:10173000E5C0283A310588F4253A310508F0E2C0C1
:101740002130310509F477C0C9010497813A910528
:1017500008F471C030E020E06EC0C901885A9109D8
:101760004597C0F7283A310509F4FEC0293A3105FA
:1017700009F4FDC02A3A310509F4FCC02B3A3105C1
:1017800009F4FBC02C3A310509F4FAC02B3B3105B2
:1017900009F4F9C02C3B310509F4F8C02D3A3105A4
:1017A00009F4F7C0203B310509F4F6C02E3A3105A3
:1017B00009F4F5C02F3A310509F4F4C0213B310595
:1017C00009F4F3C0223B310509F4F2C0233B310593
:1017D00009F4F1C0243B310509F4F0C0253B310583
:1017E00009F4EFC0263B310509F4EEC0273B310573
:1017F00009F4EDC0283B310509F4ECC0293B310563
:1018000009F4EBC02A3B310509F4EAC020E034E4D6
:1018100012C0211590E2390780F42F3F310509F0FD
:1018200050F4283E310538F0C901805F91093065D8
:10183000409708F08FCFC9010895C9019F700E9499
:101840007A0B9C01F8CF8115944508F041C0211511
:1018500083E5380708F06AC0211592E5390738F5A5
:10186000211541E5340708F05CC0211580E53807F3
:1018700008F454C0C90134E0969587953A95E1F78C
:101880008370422F46954695437090E2499FA00190
:101890001124582B822F837021E030E002C0220FE8
:1018A000331F8A95E2F7242B352B3C68C4CFC9013E
:1018B0008370992741E050E002C0440F551F8A957C
:1018C000E2F72695269580E2289F90011124EBCF20
:1018D000211596E5390748F4922F882721153545BB
:1018E000C8F59C01246F306AA6CFC90190563F709D
:1018F0008115904108F02ECF30629DCFC901805CE8
:1019000091099DCF253A310549F1263A310549F52E
:1019100022E830E490CF3327306C8DCF3F70306AAF
:101920008ACF322F2227216F306A85CFC901837079
:10193000992741E050E002C0440F551F8A95E2F715
:101940002695269580E2289F90011124242B352B83
:101950003A6871CF88279F719C01CECF21E830E48F
:101960006ACF23E830E467CF22EE34E464CF29EE77
:1019700034E461CF2AEE34E45ECF25EB34E45BCF70
:1019800026EB34E458CF23EB34E455CF24EB34E496
:1019900052CF27EB34E44FCF2CEC34E44CCF2DEC7A
:1019A00034E449CF23E835E446CF2AE835E443CF91
:1019B00022E935E440CF24E935E43DCF21E236E4A5
:1019C0003ACF23E236E437CF24E236E434CF25E2BF
:1019D00036E431CF26E236E42ECF27E236E42BCFB1
:1019E0002AE236E428CF803E910581F1C8F48133A4
:1019F000910509F462C048F48932910509F456C092
:101A00008A32910509F460C0089589339105B9F0CF
:101A100082389105A1F08533910509F440C00895FD
:101A2000863E910561F138F4823E9105B1F0833E26
:101A30009105E1F00895873E910551F108952091B7
:101A400099022370D9F080EE90E0089520919902D8
:101A500020FF14C089E390E008952091990222FFAD
:101A60000DC024FD09C083EE90E0089520919902F5
:101A700022FD31C024FF02C090E080E00895209153
:101A8000990223FFFBCF24FDF7CF87EE90E0089566
:101A90002091990223FFEECF86EE90E008952091E9
:101AA000990225FFEBCF89E290E0089520919902F9
:101AB00025FFE4CF85E390E008952091990226FF69
:101AC000DDCF8AE290E008952091990226FFD6CFDB
:101AD00081E390E0089582EE90E0089508950F93D9
:101AE0001F93CF938C01FB018281811106C0C1E05D
:101AF0008C2FCF911F910F910895C0915501C11165
:101B000025C00531104799F70E946E0D81E0809342
:101B100055010E942D1C9093540180935301109203
:101B2000480110924A011092490110924C01109202
:101B30004B0110924E0110924D01109250011092E3
:101B40004F011092520110925101D2CF8091530156
:101B5000909154010E94391C883C910540F6809177
:101B60004801E82FF0E0EE0FFF1FE75BFE4F118307
:101B700000838F5F80934801C0E0BACF0C94180AAD
:101B80000C94190A85B7806885BF85B7806885BFC2
:101B9000AAE2B1E061E070E08D91E82FE295EF708C
:101BA000F0E041A18F709B0101C0220F8A95EAF7F6
:101BB000922F9095942391A382A1822B82A381E0FE
:101BC000A033B80749F7A3E1B1E061E070E08D917F
:101BD000E82FE295EF70F0E041A18F709B0101C00A
:101BE000220F8A95EAF7922F9095942391A382A1D0
:101BF000822B82A381E0AA32B80749F7EEE6F1E032
:101C0000A6E5B1E086E891E011921192119211924D
:101C10001D921D921D921D928E179F07A9F70C947D
:101C20005D0B2F923F924F925F926F927F928F92B5
:101C30009F92AF92BF92CF92DF92EF92FF920F935B
:101C40001F93CF93DF93CDB7DEB72B970FB6F894E2
:101C5000DEBF0FBECDBF86E5282E81E0382E0AE21A
:101C600011E01E830D8338862F82C12CD12C760182
:101C7000C394AF81B8858D909D90AD90BD90B8878D
:101C8000AF83FD011292129212921292FB87EA87A1
:101C9000AD81BE818D91BE83AD83E82FE295EF705B
:101CA000F0E091A18F7001E010E002C0000F111F61
:101CB0008A95E2F71A830983802F892B81A382A159
:101CC00000950987802382A310EA1A95F1F723E192
:101CD00031E03C832B8390E080E0AB81BC817D9040
:101CE000BC83AB83272D22952F7030E0D9019096CD
:101CF0005C90AA85BB854D915D916D917C91272D5E
:101D00002F7001E010E002C0000F111F2A95E2F7CA
:101D10009801252109F07AC097018601082E04C098
:101D2000000F111F221F331F0A94D2F72801390117
:101D30004429552966297729AA85BB854D935D934A
:101D40006D937C93139701968731910531F681A1AC
:101D50001985182311A382A1B9818B2B82A3EA854F
:101D6000FB8580819181A281B38188169906AA069C
:101D7000BB0649F0F1E0F09386010E942D1C909380
:101D80008801809387010F8118850E56114009F054
:101D900070CF809186018823E9F08091870190912E
:101DA00088010E94391C0697A8F02EE631E0F10167
:101DB00081919191A191B1911F01F9018193919329
:101DC000A193B1939F01FEE62F16F1E03F0679F74C
:101DD000109286010E945F0B81E02B960FB6F8945B
:101DE000DEBF0FBECDBFDF91CF911F910F91FF904E
:101DF000EF90DF90CF90BF90AF909F908F907F90AB
:101E00006F905F904F903F902F900895412C512CF0
:101E100032018ECFCF93DF9300D000D0CDB7DEB7A5
:101E200094E0899FF0011124E259FE4F8081918155
:101E3000A281B381BC01CD010F900F900F900F9044
:101E4000DF91CF910895089590938E0180938D0135
:101E50000895E0918D01F0918E01309721F001906D
:101E6000F081E02D099480E00895E0918D01F091DA
:101E70008E01309721F00280F381E02D09940895BE
:101E8000E0918D01F0918E01309721F00480F58171
:101E9000E02D0994089520918B0130918C01281731
:101EA000390771F090938C0180938B01E0918D0143
:101EB000F0918E01309721F00680F781E02D099492
:101EC00008952091890130918A012817390771F00E
:101ED00090938A0180938901E0918D01F0918E01A8
:101EE000309721F00084F185E02D0994089508953C
:101EF0000C94770F0E94241C0E94C20D0C94ED1CC0
:101F00004F925F926F927F929F92AF92BF92CF92C9
:101F1000DF92EF92FF920F931F93CF93DF9300D046
:101F200000D00F92CDB7DEB70E94110E20E9A22E8D
:101F300021E0B22E10E000E0902E802F0E940A0FC8
:101F40006B017C01F50141905190619071905F01AE
:101F50004C145D046E047F0409F475C0809168021E
:101F600081FD0E94230F90E080E04C245D246E24CC
:101F70007F24B301A201082E04C07695679557957A
:101F800047950A94D2F740FF59C089839A82412C21
:101F9000512C3201439404C0440C551C661C771C20
:101FA0008A95D2F7C420D520E620F72081E0CD28FD
:101FB000CE28CF2809F480E08B830E942D1C8160FD
:101FC000782F9D838C8349815A816B818D810E94FA
:101FD0004F10000F111F000F111FF801E057FE4FA7
:101FE00080819181A281B38184259525A625B7257D
:101FF00080839183A283B3830E949A1F0E94290F3A
:1020000090918F018917B1F10E94290F80938F0160
:102010000F900F900F900F900F90DF91CF911F9125
:102020000F91FF90EF90DF90CF90BF90AF909F9077
:102030007F906F905F904F900C94630B0196873167
:10204000910509F096CF0F5F1F4F0630110509F07B
:1020500073CF8FEF89838A831B820E942D1C81603E
:10206000782F9D838C8349815A816B818D810E9459
:102070004F10C2CF0F900F900F900F900F90DF91E5
:10208000CF911F910F91FF90EF90DF90CF90BF9075
:10209000AF909F907F906F905F904F900895CF93F7
:1020A000DF93CDB7DEB72B970FB6F894DEBF0FBE28
:1020B000CDBF4F83588769877A878B871E8285E0DB
:1020C000FE013796DE01119601900D928A95E1F797
:1020D00049815A816B817C818D819E812B960FB6BF
:1020E000F894DEBF0FBECDBFDF91CF910C94C61622
:1020F000882309F4D8C0823871F40E94290F81FD29
:10210000D2C089E30E946B1A0E94351B89E30E94AA
:10211000A81A0C94351B833859F40E94290F80FDAE
:10212000C2C083E50E946B1A0E94351B83E5EFCF86
:10213000843859F40E94290F82FDB5C087E40E94BB
:102140006B1A0E94351B87E4E2CF9CEF980F913AFF
:1021500018F40E946B1ADDCF90E2980F983050F47B
:10216000877091E001C0990F8A95EAF7892F0E9444
:10217000EC1ACFCF9BE5980F933070F4853A31F08D
:10218000863A39F083E890E00C944B0F81E890E0B8
:10219000FBCF82E890E0F8CF98E5980F953108F0F2
:1021A00082C0883A09F440C0893A09F440C08A3AAA
:1021B00009F440C08B3A09F440C08C3A09F440C09D
:1021C0008B3B09F440C08C3B09F440C08D3A09F4C4
:1021D00040C0803B09F440C08E3A09F440C08F3AB9
:1021E00009F440C0813B09F440C0823B09F440C07F
:1021F000833B09F440C0843B09F440C0853B09F4AB
:1022000040C0863B09F440C0873B09F440C0883B8E
:1022100009F440C0893B09F440C08A3B09F440C03E
:1022200090E080E00C94610F82EE90E0FBCF89EEAD
:1022300090E0F8CF8AEE90E0F5CF85EB90E0F2CF1A
:1022400086EB90E0EFCF83EB90E0ECCF84EB90E077
:10225000E9CF87EB90E0E6CF8CEC90E0E3CF8DEC1C
:1022600090E0E0CF83E891E0DDCF8AE891E0DACF3B
:1022700082E991E0D7CF84E991E0D4CF81E292E086
:10228000D1CF83E292E0CECF84E292E0CBCF85E261
:1022900092E0C8CF86E292E0C5CF87E292E0C2CF5B
:1022A0008AE292E0BFCF0895882309F44BC08238B8
:1022B00071F40E94290F81FF45C089E30E946B1AC7
:1022C0000E94351B89E30E94A81A0C94351B8338A1
:1022D00059F40E94290F80FF35C083E50E946B1AD4
:1022E0000E94351B83E5EFCF843859F40E94290FF3
:1022F00082FF28C087E40E946B1A0E94351B87E486
:10230000E2CF9CEF980F913AF0F290E2980F98305C
:1023100050F4877091E001C0990F8A95EAF7892FF0
:102320000E94F21AD2CF9BE5980F933020F490E0F0
:1023300080E00C944B0F885A853120F490E080E0C7
:102340000C94610F0895882321F00E94EC1A0C94DC
:10235000351B0895882321F00E94F21A0C94351B36
:1023600008958F929F92AF92BF92DF92EF92FF9269
:102370000F931F93CF93DF9300D000D00F92CDB770
:10238000DEB77C016D837983FC01058102950F70B6
:10239000128111110E940B1B0E94641AD82E8823EF
:1023A00071F01123A1F08D81805E883080F082E091
:1023B0000E944E1A0E94641A91E0D82ED926E98113
:1023C000E295EF70F0E0EB5EF64D0C94B128D12C65
:1023D000F6CF09810F70F981F07F11F00295007F2F
:1023E0001123B1F0002361F08D81805E883018F0F8
:1023F0002D81211109C0802F0E94EC1A0E94351BEB
:102400008D810E94781015C0802F0E94FD1AF6CF92
:102410008D810E945411002361F08D81805E88308F
:1024200018F03D81311129C0802F0E94F21A0E94BC
:10243000351BDD2009F4D3C10E94411A80FDCFC1B4
:10244000F70112820E943B1A0E948418C7010E9461
:1024500000140E943B1A0F900F900F900F900F9056
:10246000DF91CF911F910F91FF90EF90DF90BF9080
:10247000AF909F908F900C94A618802F0E94031B02
:10248000D6CF49814F70B42E5981507F503219F008
:10249000B29480EFB8228D81882369F0813029F1D0
:1024A000112369F1002359F0F701858180FFA8CF3E
:1024B0008F70858304C0112361F0011104C08B2D3E
:1024C0000E94A311B6CF8B2D0130D1F70E941F1BA4
:1024D000B0CF011106C00E94221B8B2D0E94AA11B1
:1024E000A8CF013009F4A5CFF6CF112321F0063093
:1024F00008F09FCFE4CF053008F09BCFEECF00234C
:1025000061F38D810E94541194CF898186958695BF
:10251000837069F0813009F08CCF8D81998193703F
:10252000111102C090E080E00E94610F82CF8D8186
:1025300099819370111102C090E080E00E944B0FCE
:1025400078CF8D81112329F00E94A81E0E948F1F31
:1025500070CF0E94101FFACF8981837009F05FC08D
:10256000111167CF2D81229526952770220F220FFA
:102570008D818F7090E0B0E0A0E04C015D01022EF3
:1025800004C0880C991CAA1CBB1C0A94D2F7FD81BC
:1025900060E070E0CB01F4FF0FC06FE070E080E01E
:1025A00090E004C0660F771F881F991F2A95D2F705
:1025B0006095709580959095298126952695237034
:1025C0002D832230B1F0233019F19B01AC01282971
:1025D00039294A295B2929833A834B835C833D81CE
:1025E00069817A818B819C813130B1F00E94111810
:1025F00020CF9B01AC01282939294A295B2929834D
:102600003A834B835C83CA01B9010E943B1811CF06
:102610000E941118C501B4010E94E7170ACF8695E0
:10262000112311F089818170882309F402CF2D8153
:10263000229526952770220F220F8D818F7090E0B2
:10264000B0E0A0E04C015D01022E04C0880C991C92
:10265000AA1CBB1C0A94D2F73D8160E070E0CB015C
:1026600034FF0FC06FE070E080E090E004C0660FC0
:10267000771F881F991F2A95D2F7609570958095CE
:10268000909549814695469543704D834230B1F00F
:10269000433019F19B01AC01282939294A295B29CA
:1026A00029833A834B835C833D8169817A818B8165
:1026B0009C813130B1F00E941719BBCE9B01AC0157
:1026C000282939294A295B2929833A834B835C834A
:1026D000CA01B9010E944119ACCE0E941719C50167
:1026E000B4010E94ED18A5CE3D81323F09F447C0E8
:1026F00080F4303F79F1313FD9F1832F805E803112
:10270000D0F0112309F456C001117ACE89818F715E
:1027100033C04D81433FD1F1443F99F7112309F470
:102720003FC089818F7189830E94841863E0898109
:102730000E94451A7ECE5D815F705D8389818F71B5
:10274000112321F00E9484188D81BACE0E94A61810
:102750008D81C4CE112341F0053008F06ACE898105
:102760008F710E94CB1865CE063008F062CEF7CF8D
:1027700089818F71112339F00E9484185ACE898182
:102780008F711123C9F30E94A61853CE112329F08B
:1027900089818F710E946F184CCE0E94651849CEB6
:1027A00081E00E944E1A023008F443CE82E00E947B
:1027B0004E1A3FCE0111A5CE89818F71E4CF498198
:1027C0004F706D81C7010E94150A0E94601731CEBB
:1027D00049814F706D81C7010E94650B2ACE0F9011
:1027E0000F900F900F900F90DF91CF911F910F914D
:1027F000FF90EF90DF90BF90AF909F908F900895E3
:102800000F931F93CF93DF93EC018B819C81892BD6
:1028100029F08881998189238F3F29F4DF91CF9115
:102820001F910F910895CE010E942E0A8823B1F3C3
:10283000688179818A810E94111A8C010E946B192A
:102840000E94DC17B801CE01DF91CF911F910F914B
:102850000C94B1110E940B1B0E941C1B0E94DE1ADB
:102860000E94351B0E9480200E948F1F90E080E014
:102870000E944B0F90E080E00C94610F0E94FA1AC6
:102880000C942A140E94051A282F892F82958F7084
:10289000903C80F48A30B0F4843020F4823090F49C
:1028A00080E008958630E1F781E0203E88F0213F06
:1028B000B9F70EC08C3011F08F3091F793FB882759
:1028C00080F9089581E0203F39F018F4203E40F768
:1028D0000895243F29F7FCCF0895CF93DF9300D0CC
:1028E00000D00F92CDB7DEB70F900F900F900F90E2
:1028F0000F90DF91CF910895CF93DF9300D000D058
:1029000000D0CDB7DEB726960FB6F894DEBF0FBE67
:10291000CDBFDF91CF9108951F93CF93DF93E091C7
:10292000A90116E08091AA018E1304C0DF91CF9116
:102930001F910895CE2FD0E01E9FF0011124E55580
:10294000FE4F4081518162817381848195810E9413
:102950007C14FE013196E770E5CF4091DB01509188
:10296000DC016091DD017091DE018091DF019091C9
:10297000E0010C947C141F93CF93DF938091E001CE
:10298000807FC1F48091DD018823A1F08091A901AD
:10299000C091AA016091DB017091DC014091DE01E0
:1029A0005091DF01D62FD723DA01A095B09516E01C
:1029B000C81304C0DF91CF911F91089590E0411595
:1029C000510511F0DF3F31F401968770F1CF2A0FE6
:1029D0003B1F17C0189FF001199FF00D1124E555FA
:1029E000FE4F21812713F0CF20812613EDCF2281C6
:1029F0002111EACF238134812417350740F3241BAA
:102A0000350B283C310500F72091E0012F70206143
:102A10002093E00126E0289FF001299FF00D11246A
:102A2000E055FE4F80818F70806180838BED91E057
:102A30000E940014DF91CF911F910C948C149F92EF
:102A4000AF92BF92CF92DF92EF92FF920F931F93BC
:102A5000CF93DF93CDB7DEB72B970FB6F894DEBFD9
:102A60000FBECDBF8C0185E0F801DE011796019005
:102A70000D928A95E1F7D8014C9111965C911197CE
:102A80001296EC9012978091DE019091DF010097F1
:102A900009F46BC12091DB013091DC01632F6223CB
:102AA0006F3F09F462C11396CD90DC909090DD01E8
:102AB000992009F4F8C0C816D90608F43FC0F601F9
:102AC000E81BF90BCF01FF24F394883C910508F033
:102AD000F12C8BEDA82E81E0B82E8091E001982F8B
:102AE000907FFF2009F4B7C0911180C0FE2C3513F0
:102AF0002AC0241328C0E11026C08F708061809303
:102B0000E0010E94AD14C5010E9400148091E00113
:102B1000D80115968C938F2D2B960FB6F894DEBFA7
:102B20000FBECDBFDF91CF911F910F91FF90EF901E
:102B3000DF90CF90BF90AF909F9008958095909533
:102B40008C0D9D1DC0CFCD2829F0842F85238F3F6C
:102B500009F019C180E0B82FB170DB2EE091A90116
:102B60002091AA0136E080FD1CC0EE20A1F28091E8
:102B7000E00181608093E001F12CCDCF8E2F90E0B9
:102B80003E9FF0011124E555FE4F6181651306C09B
:102B90006081641303C062816E11E7CFFC0131963E
:102BA000E770E213EBCF4F8358878F8198850E949F
:102BB000051A292F22952F70903260F0225F2F7016
:102BC000223078F49F7051F0F8019581907F31F4B4
:102BD000D12C0AC09F7011F08823D1F3805E883019
:102BE000B8F3C8010E940014FD2C95CF351306C020
:102BF000241304C0D801EE2009F47BC04F8358870A
:102C00008F8198850E944214882309F4B8C0EE2071
:102C100009F4B5C08091E001803270F02091DB01B1
:102C20003091DC013A8329831B82DD82CC828E8342
:102C3000CE0101960E94001486E0F801ABEDB1E0F0
:102C400001900D928A95E1F70E94BB140E94AD1489
:102C5000FF24F39460CF911113C07C2DDB86CA86CC
:102C60006E2D8B850E946D148BED91E00E940014F7
:102C700086E0F50111928A95E9F70E94AD144BCFD9
:102C80003513BCCF2413BACFE110B8CFD8011596B5
:102C90008C93C8010E94001486E0F50111928A9578
:102CA000E9F7F92C38CFC816D90688F1B601681BA8
:102CB000790BCB01F12C883C910508F047C0FE2C24
:102CC000EE2009F45CC0351330C024132EC080916F
:102CD000E00180FD21C0982F907FF1F0D80115967A
:102CE0008C931597903F39F0982F907F905F8F705D
:102CF000892B15968C93C8010E94001486E0F80178
:102D0000ABEDB1E001900D928A95E1F7B6CF8095D9
:102D100090958C0D9D1DCECF86E0F801ABEDB1E016
:102D200001900D928A95E1F7F6CE4F8358878F81F7
:102D300098850E94421481117FCF8091E0018160CB
:102D40008093E001C8010E940014E5CE7C2DDB8653
:102D5000CA866E2D8B850E946D1486E0EBEDF1E046
:102D6000DF011D928A95E9F788CFEE2041F04F836D
:102D700058878F8198850E94421481115DCFC801C8
:102D80000E94001465CF81E08E25E5CE1F93CF937E
:102D9000DF93CDB7DEB72C970FB6F894DEBF0FBE2A
:102DA000CDBF4F83588769877A878B879C87CE01F1
:102DB00007960E941F15882369F08A859B85892BB9
:102DC00039F04F815885842F85238F3F09F071C0DA
:102DD00016E05FC086E0FE013796DE011196019095
:102DE0000D928A95E1F78A859B85892B89F38885E1
:102DF0009F8189238F3F61F32091AA0130E0C901AF
:102E00000196877099274091A9014817190671F416
:102E10000E943E141092AA011092A90186E0EBEDE7
:102E2000F1E0DF011D928A95E9F7D2CF96E0929FFB
:102E3000D001939FB00D1124A555BE4FFE013196D0
:102E400001900D929A95E1F78093AA010E948C144B
:102E5000BFCF819FC001112485559E4F0E941F1531
:102E60008823E9F0E091A9011E9FF0011124E555A6
:102E7000FE4F4081518162817381848195810E94DE
:102E80007C148091A90190E0019687709927809326
:102E9000A9018091A9019091AA018913DACF2C96FA
:102EA0000FB6F894DEBF0FBECDBFDF91CF911F915B
:102EB000089569857A858B859C850E947C1488CFCE
:102EC000EF92FF920F931F93CF93DF938C01892B87
:102ED00089F0F12CEE24E394E8012196F801849125
:102EE000843709F457C0A0F4823009F43EC048F496
:102EF0008130D1F0DF91CF911F910F91FF90EF9032
:102F000008959CEF980F9037A8F70E9478100AC098
:102F1000853709F44CC09CE7980F903758F78F77A6
:102F20000E9454118E0116C00E5F1F4FFE01849146
:102F300090E2980F983060F48770FE2D01C0FF0F6B
:102F40008A95EAF78F2F0E940E1B0E94351B02C044
:102F50000E9478108F2D815008F4BECFEFE9FFE07A
:102F60003197F1F700C00000F6CF0E5F1F4FFE0152
:102F7000849190E2980F983050F48770FE2D01C034
:102F8000FF0F8A95EAF78F2F0E94141BDECF0E9455
:102F90005411E0CF0E5F1F4FFE01C491C150D0F21B
:102FA0008FE99FE00197F1F700C00000F7CF0E5FB7
:102FB0001F4FFE01F490CECF089560933F027093AF
:102FC000400280934102909342020C942A14CF93C2
:102FD000DF9300D000D0CDB7DEB769837A838B83CF
:102FE0009C8380913F0290914002A0914102B09158
:102FF000420229813A814B815C81822B932BA42B45
:10300000B52B80933F0290934002A0934102B0936E
:1030100042020F900F900F900F90DF91CF910C9480
:103020002A14CF93DF9300D000D0CDB7DEB76983E9
:103030007A838B839C8380913F0290914002A09180
:103040004102B091420229813A814B815C81822305
:103050009323A423B52380933F0290934002A0932F
:103060004102B09342020F900F900F900F90DF91AA
:10307000CF910C942A14CF93DF9300D000D0CDB71A
:10308000DEB769837A838B839C8380913F02909122
:103090004002A0914102B091420229813A814B81C4
:1030A0005C8182279327A427B52780933F029093C2
:1030B0004002A0934102B09342020F900F900F90F4
:1030C0000F90DF91CF910C942A1410923B02109232
:1030D0003C0210923D0210923E020C942A1441E0F0
:1030E00050E060E070E004C0440F551F661F771F7A
:1030F0008A95D2F740933B0250933C0260933D0285
:1031000070933E020C942A14282F81E090E0A0E0F6
:10311000B0E004C0880F991FAA1FBB1F2A95D2F7E1
:1031200040913B0250913C0260913D0270913E0201
:10313000842B952BA62BB72B80933B0290933C02BC
:10314000A0933D02B0933E020C942A1441E050E05B
:1031500060E070E004C0440F551F661F771F8A951A
:10316000D2F7409550956095709580913B02909173
:103170003C02A0913D02B0913E0284239523A623F8
:10318000B72380933B0290933C02A0933D02B093FF
:103190003E020C942A14282F81E090E0A0E0B0E0D9
:1031A00004C0880F991FAA1FBB1F2A95D2F7409110
:1031B0003B0250913C0260913D0270913E02842797
:1031C0009527A627B72780933B0290933C02A093B4
:1031D0003D02B0933E020C942A14CF93DF9300D0AB
:1031E00000D0CDB7DEB769837A838B839C838091CF
:1031F0003B0290913C02A0913D02B0913E02298198
:103200003A814B815C81822B932BA42BB52B80932D
:103210003B0290933C02A0933D02B0933E020F907C
:103220000F900F900F90DF91CF910C942A14CF93B1
:10323000DF9300D000D0CDB7DEB769837A838B836C
:103240009C8380913B0290913C02A0913D02B09101
:103250003E0229813A814B815C8182239323A423FE
:10326000B52380933B0290933C02A0933D02B09320
:103270003E020F900F900F900F90DF91CF910C9422
:103280002A14CF93DF9300D000D0CDB7DEB7698387
:103290007A838B839C8380913B0290913C02A09126
:1032A0003D02B0913E0229813A814B815C818227A7
:1032B0009327A427B52780933B0290933C02A093C9
:1032C0003D02B0933E020F900F900F900F90DF9150
:1032D000CF910C942A140895E82F27E1929FE00DD6
:1032E00011248E2F877041E001C0440F8A95EAF7C0
:1032F000E695E695E69585E0E89FF0011124EF510B
:10330000FE4F30E020E070E05191DF011197CB01DA
:10331000022E02C0969587950A94E2F781708195F6
:103320008527842385278C932F5F3F4F25303105D8
:1033300059F70895E82F27E1929FE00D11249E2F61
:103340009770E695E695E69585E0E89FF0011124F3
:10335000EF51FE4F50E040E080E0219130E0092E37
:1033600002C0369527950A94E2F721703327042E80
:1033700001C0220F0A94EAF7822B4F5F5F4F45305E
:10338000510559F70895BF92CF92DF92EF92FF92C5
:103390000F931F93CF93DF938C01C0903B02D0908B
:1033A0003C02E0903D02F0903E0280913F029091FD
:1033B0004002A0914102B0914202C82AD92AEA2AC9
:1033C000FB2ACFE1D0E0BC2ED701C6010C2E04C0F1
:1033D000B695A795979587950A94D2F780FD0EC06C
:1033E000219788F7B12C8B2DDF91CF911F910F91F1
:1033F000FF90EF90DF90CF90BF900895B8018C2F91
:103400000E94820B019761F3EECFCF93DF93D82F09
:10341000C92F0E94C3196D2F7C2FDF91CF910C947F
:10342000820B1F93CF93DF93162FD72F9091A80174
:10343000992339F0862F972FDF91CF911F910C940C
:10344000051A882391F0862F972F0E94C319C82F41
:10345000682F812F9D2F0E946C19612F7D2F8C2F3B
:10346000DF91CF911F910C94820B862F972F0E9492
:103470009A19C82FF2CF809143028595859585953D
:103480000895809143028770089598E0899F900184
:103490001124622B609343020C9484189091430290
:1034A0008095892380934302282F277061F4282F69
:1034B000082E000C330B9217130629F0859585957D
:1034C00085950C94A618089590914302977081E019
:1034D00009F480E00895909112019923E1F0909110
:1034E000990297FF18C0E82FE695E695E695EF312B
:1034F00039F12091000130910101E20FF32FF11D0C
:10350000877021E030E001C0220F8A95EAF78181BF
:10351000822B818308952091000130910101F901EE
:1035200032969FEF40E05191851751F09F3F19F47B
:10353000511101C0942F4F5F4E31A9F79F3F09F4FD
:103540000895290F311D97FD3A95F9018283089559
:1035500090911201992301F19091990297FF1CC05B
:10356000E82FE695E695E695EF3139F120910001D7
:1035700030910101E20FF32FF11D877021E030E05F
:10358000A90102C0440F551F8A95E2F7CA01809530
:103590009181892381830895209100013091010157
:1035A000F9013296205E3F4F9191891303C0DF01EC
:1035B00011971C92E217F307B9F7089581E090E0A4
:1035C000E0910001F0910101E80FF91F10820196CE
:1035D00080329105A9F7089590916702982B9093F6
:1035E00067020895982F90958091670289238093B0
:1035F0006702089510926702089590916602982BD1
:10360000909366020895982F909580916602892381
:103610008093660208951092660208959091650263
:10362000982B909365020895982F9095809165024C
:10363000892380936502089510926502089580930E
:10364000440208951092440208952091000130919F
:103650000101F9013196205E3F4F80E09191911177
:103660008F5FE217F307D1F70895E0910001F09121
:103670000101809167028083E0910001F0910101D6
:10368000808190916602892B8083E0910001F09106
:103690000101808190916502892B80839091440281
:1036A000992361F0E0910001F09101018081892B63
:1036B00080830E94251B8111109244028091000199
:1036C000909101010C94350F6DEE7EEF90E080E05B
:1036D0000E94EB2860E082E090E00E94D92860E040
:1036E00083E090E00E94D92860E084E090E00E94AE
:1036F000D92860E085E090E00C94D92890E080E043
:103700000E94D3289C0181E02D3E3E4F09F080E0CD
:10371000089582E090E00C94CB28682F82E090E03E
:103720000C94D92883E090E00C94CB28682F83E098
:1037300090E00C94D92884E090E00C94CB28682F7A
:1037400084E090E00C94D92880919F02843039F174
:103750001092690288E190E020E40FB6F894A895F1
:10376000809360000FBE2093600080E00E94630B96
:1037700083B7817F846083BF83B7816083BF789480
:10378000889583B78E7F83BF0FB6F894A8958091F4
:103790006000886180936000109260000FBE089501
:1037A00008950895CF93DF9300D000D00F92CDB746
:1037B000DEB70E94D01B0E94110E0E94D11B1D82F9
:1037C0008D810E940A0F672B682B692B71F48D8104
:1037D0008F5F8D838630A1F780E00F900F900F9060
:1037E0000F900F90DF91CF91089581E0F6CF0E9466
:1037F0003E140E94290F0C94630B1F921FB61F9258
:1038000011248F939F93AF93BF938091690281118D
:1038100013C08091950290919602A0919702B09169
:1038200098024196A11DB11D809395029093960236
:10383000A0939702B0939802BF91AF919F918F91FF
:103840001F901FBE1F90189582E084BD93E095BD28
:103850009AEF97BD80936E0008952FB7F8948091EA
:10386000950290919602A0919702B09198022FBF75
:103870000895CF92DF92EF92FF929C014FB7F89498
:103880008091950290919602A0919702B091980232
:103890004FBF6C017D01EE24FF24A90170E060E0C0
:1038A000C416D506E606F70638F0821B930BFF9088
:1038B000EF90DF90CF9008950197F7CF1F921FB63A
:1038C0001F9211248F939F93AF93BF938091950282
:1038D00090919602A0919702B09198020196A11D35
:1038E000B11D8093950290939602A0939702B09396
:1038F0009802BF91AF919F918F911F901FBE1F9013
:1039000018950E947424F8942FEF87EA91E62150CD
:1039100080409040E1F700C0000087E090EBDC01C0
:103920008093A8029093A902A093AA02B093AB023D
:1039300088E19CE00FB6F894A895809360000FBED4
:1039400090936000FFCFAF92BF92CF92DF92EF9241
:10395000FF920F931F93CF93C0E0A82EB12C8C2F12
:103960000E940A0F6B017C0110E000E0D701C60144
:10397000002E04C0B695A795979587950A94D2F71F
:1039800080FF13C0602F7C2F80E00E94660BA8167A
:10399000B90659F481E0CF911F910F91FF90EF90FC
:1039A000DF90CF90BF90AF9008950F5F1F4F07310A
:1039B0001105E1F6CF5FC63091F680E0ECCFCF93F2
:1039C000C82F8CE20E94A31C882321F08C2FCF915A
:1039D0000C94A31C80E0CF910895CF93DF9300D087
:1039E00000D0CDB7DEB70E947E1B811102C00E94BD
:1039F000641B95E6998308C00E94110E8FE39CE931
:103A00000197F1F700C00000A981A150A983A1117D
:103A1000F3CF89E20E94DF1C811110C18AE20E946B
:103A2000DF1C81110E94641B85E00E94DF1C811154
:103A30000E94811C0E94891B8093680287E00E947B
:103A4000DF1C882371F08BE10E94DF1C882309F4BE
:103A5000D1C090916802892F8D7F91FF8260809301
:103A60006802809168020E948D1B0E949B1B90E05F
:103A700090939A028093990280EE0E94DF1C882323
:103A800041F090919902892F8E7F90FF8160809301
:103A9000990289E30E94DF1C882341F090919902EA
:103AA000892F8D7F91FF82608093990282EE0E9420
:103AB000DF1C882341F090919902892F8B7F92FF20
:103AC00084608093990286EE0E94DF1C882341F077
:103AD00090919902892F877F93FF88608093990244
:103AE00083EE0E94DF1C882341F090919902892F78
:103AF0008F7E94FF80618093990285E30E94DF1C92
:103B0000882341F090919902892F8F7D95FF8062E3
:103B10008093990281E30E94DF1C882341F09091F9
:103B20009902892F8F7B96FF80648093990281E1AF
:103B30000E94DF1C882341F090919902892F97FB06
:103B400087F9805880939902809199020E949F1B67
:103B500087E20E94DF1C89838EE10E94DF1C88239C
:103B600019F0B981B260B9838FE10E94DF1C88230C
:103B700019F029812460298380E20E94DF1C8823B8
:103B800019F039813860398381E20E94DF1C882373
:103B900019F049814061498382E20E94DF1C882339
:103BA00019F059815062598383E20E94DF1C8823F7
:103BB00019F089818064898384E20E94DF1C882354
:103BC000B1F199819068998389810E94961B39810E
:103BD000232F30E050E040E029833A834B835C831D
:103BE000CA01B9010F900F900F900F90DF91CF9104
:103BF0000C94DD178EE00E94DF1C882339F0909131
:103C00006802892F8B7F92FF846029CF80E10E9418
:103C1000DF1C90916802882329F0892F877F93FF0A
:103C200088601DCF892F8E7F90FF816018CFA9817A
:103C3000A111CACF0E94921B282FCBCF0F900F90BB
:103C40000F900F90DF91CF91089580916C0280FFCB
:103C500012C06091050185E0689FB001112475953F
:103C600067957595679560387105A8F561157105BB
:103C7000A1F1862F089581FF09C06091050185E0BB
:103C8000689FB001112475956795EDCF609105018E
:103C900082FD0AC080916D028823D1F090910401C9
:103CA00060910501891728F085E0689FB001112413
:103CB000DACF869FB001112485E0869F9001879F0F
:103CC000300D1124692F70E0C9010E949D28CBCFCF
:103CD00065E070E0CECF8FE7089581E00895809190
:103CE0006C0280FF0CC06091030170E075956795D0
:103CF000759567956115710549F1862F089581FFC6
:103D000006C06091030170E075956795F3CF6091EF
:103D1000030182FD0BC090916D029923A1F0609187
:103D2000020180910301961738F0682F70E0603827
:103D3000710500F38FE70895899FC001112470E099
:103D40000E949D28F4CF61E070E0D7CF81E0089514
:103D5000803F31F40E94251E819580937002089562
:103D6000813F19F40E94251EF8CF823F31F40E9452
:103D7000251E819580936F020895833F19F40E9458
:103D8000251EF8CF893F29F40E946F1E809371028F
:103D900008958A3F21F40E946F1E8195F7CF8B3FD3
:103DA00031F40E946F1E81958093720208958C3FBA
:103DB00019F40E946F1EF8CF843F31F480916E0297
:103DC000816080936E020895853F21F480916E0298
:103DD0008260F7CF863F21F480916E028460F1CF3C
:103DE000873F21F480916E028860EBCF883F21F4F9
:103DF00080916E028061E5CF8D3F31F480916C023D
:103E0000816080936C0208958E3F21F480916C0252
:103E10008260F7CF8F3FB9F780916C028460F1CF59
:103E200090916F02803F41F48091700287FD109263
:103E30007002992371F00895813F29F480917002F6
:103E40001816ACF3F6CF823F81F497FFF2CF1092B1
:103E50006F028091700290917102892B9091720291
:103E6000892B49F710926D020895833F19F41916B2
:103E700074F3DFCF893F39F4809171021816CCF6C4
:103E800010927102D6CF8A3F29F48091710287FF88
:103E9000D0CFF6CF8B3F39F48091720287FFC9CF24
:103EA00010927202C6CF8C3F29F4809172021816CC
:103EB000BCF3BFCF843F31F480916E028E7F80933C
:103EC0006E02B7CF853F21F480916E028D7FF7CFD0
:103ED000863F21F480916E028B7FF1CF873F21F4E2
:103EE00080916E02877FEBCF883F21F480916E0234
:103EF0008F7EE5CF8D3F31F480916C028E7F809371
:103F00006C0297CF8E3F21F480916C028D7FF7CFAA
:103F10008F3F09F08ECF80916C028B7FF0CF8EE6C1
:103F200092E00E94400F0E942D1C90936B028093A0
:103F30006A0208951F93CF93DF9300D000D000D082
:103F4000CDB7DEB780916A0290916B020E94391C56
:103F5000AC0180916D022091060130E0811106C014
:103F6000209107019AE0299F9001112442175307DD
:103F700088F020916F02A0917002A98310917102C4
:103F8000B0917202BE8321110FC09A2F912B9B2BEF
:103F900009F0B2C026960FB6F894DEBF0FBECDBFB3
:103FA000DF91CF911F9108958F3F19F08F5F80931C
:103FB0006D02121624F40E94251E80936F028091D8
:103FC0006F0287FF05C00E94251E819580936F02B6
:103FD0002981121624F40E94251E8093700280917C
:103FE000700287FF05C00E94251E81958093700294
:103FF00080916F02882309F455C0309170023D838F
:10400000332309F44FC0282F880F330B440B550B73
:1040100029833A834B835C83CA01B9010E94A42798
:1040200023E333E343E35FE369837A838B839C83F6
:1040300069817A818B819C810E94082869837A83B7
:104040008B839C8369817A818B819C810E946C2700
:1040500060936F028D81082E000C990BAA0BBB0B8D
:1040600089839A83AB83BC83BC01CD010E94A427C2
:1040700023E333E343E35FE369837A838B839C83A6
:1040800069817A818B819C810E94082869837A8367
:104090008B839C8369817A818B819C810E946C27B0
:1040A00060937002111624F40E946F1E80937102B7
:1040B0008091710287FF05C00E946F1E81958093D9
:1040C00071029E81191624F40E946F1E8093720261
:1040D0008091720287FF05C00E946F1E81958093B8
:1040E000720226960FB6F894DEBF0FBECDBFDF91E9
:1040F000CF911F910C948F1F8F3F09F057CF68CF3E
:1041000085E0EEE6F2E0DF011D928A95E9F7109274
:104110006D0210926C020895809193020895CF93DE
:10412000DF9300D00F92CDB7DEB720919F022430ED
:1041300019F523E029838A839B832093E9008FEF7D
:104140009091E800815095FD06C095ED9A95F1F7A4
:1041500000008111F5CF8091E80085FF0DC050E08F
:1041600040E063E070E0CE0101960E94EC22809175
:10417000E8008E778093E8000F900F900F90DF910A
:10418000CF910895CF93DF9300D00F92CDB7DEB7D4
:104190009C0180919F02843031F582E08983205810
:1041A00031093B832A8383E08093E9008FEF90916C
:1041B000E800815095FD06C095ED9A95F1F7000055
:1041C0008111F5CF8091E80085FF0DC050E040E0FF
:1041D00063E070E0CE0101960E94EC228091E8003D
:1041E0008E778093E8000F900F900F90DF91CF9122
:1041F000089520919F022430F1F422E02093E900F9
:104200002FEF3091E800215035FD06C035ED3A958D
:10421000F1F700002111F5CF2091E80025FF0BC038
:1042200050E040E065E070E00E94EC228091E80000
:104230008E778093E8000895CF93DF93D82FC92F0E
:1042400080919F028430F1F4909112019923E9F05A
:104250009091990297FF19C08093E9008FEF909198
:10426000E800815095FD06C095E19A95F1F70000B0
:104270008111F5CF8091E80050E040E060E270E00D
:1042800085FD1AC0DF91CF91089581E08093E90008
:104290008FEF9091E800815095FD06C095ED9A95BD
:1042A000F1F700008111F5CF8091E80085FFEACF9A
:1042B00050E040E068E070E08D2F9C2F0E94EC22DF
:1042C0008091E8008E778093E80080E2ED2FFC2F4C
:1042D000A3E7B2E001900D928A95E1F7D3CF8091E8
:1042E0009E02811109C00E9474240E94D1248091F1
:1042F000E20084608093E200089510929E02089587
:10430000089508950C94F71B42E061EC81E00E944F
:10431000F02342E061EC82E00E94F02342E061EC95
:1043200083E00E94F02342E261EC84E00C94F023ED
:104330008091A102893089F148F4823009F494C057
:10434000833009F44FC0813041F008958A3009F478
:104350007BC08B3009F461C008958091A002813A3E
:1043600009F03FC08091E800877F8093E80080914A
:10437000A4029091A502892B61F460E283E792E0A8
:1043800070E00E943B238091E8008B778093E800E7
:10439000089560E090E080E0F3CF8091A002813248
:1043A00001F58091A4029091A502009711F0039766
:1043B000C1F48091E800877F8093E8008091E80055
:1043C00082FF0BC08091F100809393028091E800FE
:1043D0008B778093E8000C94242480919F028111B4
:1043E000EDCF08958091A002813AD9F78091A4027F
:1043F0009091A502892BA9F78091E800877F80938F
:10440000E8008091E80080FFFCCF8091120180934A
:10441000F1008091E8008E77DCCF8091A00281329C
:1044200001F78091A4029091A502892BD1F6809189
:10443000E800877F8093E8000E9424248091A202F4
:10444000809312010C943E148091A002813249F6AF
:104450008091E800877F8093E8000E942424809167
:10446000A3028093940208958091A002813A09F0FA
:10447000B8CF8091E800877F8093E8008091E800C2
:1044800080FFFCCF80919402C2CF84B7877F84BF26
:104490000FB6F894A89580916000886180936000C1
:1044A000109260000FBE80E880936100109261005E
:1044B0000E94780F0E9474240E94D1248091E2000F
:1044C00084608093E20078940E9451270E947A0FC2
:1044D00088E091E00E94240F80919F02853019F0BE
:1044E0000E94800FF9CF0E94A41B80919D02882317
:1044F00099F30E94D21B882379F30E94D622ECCF35
:104500009C01DA01892F992783309105C1F068F465
:104510008130910509F445C0029761F48DE690E081
:104520002CE132E12D933C93089581329105E1F025
:10453000829739F190E080E030E020E0F3CFC901CC
:104540009927213059F08230910559F0E8E1F2E1E4
:10455000892B81F7849190E09F01E4CFE0E0F2E1C4
:10456000F9CFECEEF1E1F6CF643020F7E62FF0E082
:10457000EE0FFF1FE45CFE4F2081318189E090E067
:10458000D1CF6430B8F670E0FB01EE0FFF1FEC5C9A
:10459000FE4F20813181605D7E4FFB01808190E084
:1045A000C1CF82E190E029E832E1BCCF80E189BD52
:1045B00082E189BD09B400FEFDCF8091D8008F7DD6
:1045C0008093D8008091E00082608093E000809129
:1045D000E00081FDFCCF0895AF92BF92CF92DF92B1
:1045E000FF920F931F93CF93DF936C01EB018A012E
:1045F0000E944324F82E811123C00115110539F0C2
:10460000F80180819181C81BD90BC80ED91EB12C2D
:10461000A12C2097A9F08091E80085FD22C080910F
:10462000E8008E778093E80001151105A1F0F801EC
:1046300080819181A80EB91EB182A08285E0F82EFA
:104640008F2DDF91CF911F910F91FF90DF90CF9031
:10465000BF90AF9008950E9443248823D1F2F82E92
:10466000EFCFF60181916F018093F1002197FFEF69
:10467000AF1ABF0ACECFFC01CB012091A602309128
:10468000A7022617370790F0009729F42091E80039
:104690002E772093E80040E0009751F4411108C0C4
:1046A0008091E80082FF31C080E00895C901F3CF16
:1046B00020919F022223A9F12530A9F12091E80041
:1046C00023FD2DC02091E80022FDEACF2091E800D3
:1046D00020FFE2CF3091F3002091F200009719F013
:1046E0002830310558F041E02830310509F040E02C
:1046F0002091E8002E772093E800CECF419140939F
:10470000F10001972F5F3F4FE9CF80919F028823EF
:1047100041F0853041F08091E80083FFC1CF81E016
:10472000089582E0089583E00895FC01CB01209173
:10473000A6023091A7022617370790F0009729F4B8
:104740002091E8002E772093E80040E0009751F494
:10475000411108C08091E80082FF32C080E00895D6
:10476000C901F3CF20919F022223B1F12530B1F18D
:104770002091E80023FD2EC02091E80022FDEACF21
:104780002091E80020FFE2CF3091F3002091F20069
:10479000009719F02830310558F041E028303105F4
:1047A00009F040E02091E8002E772093E800CECF7A
:1047B00044914093F100319601972F5F3F4FE8CF2E
:1047C00080919F02882341F0853041F08091E8007C
:1047D00083FFC0CF81E0089582E0089583E00895CB
:1047E000982F973028F08F708093E90081E008952A
:1047F0009093E900242F762F50E0981731F07091B4
:10480000EC002091ED005091F00021FD02C09F5F6F
:10481000E8CF3091EB003E7F3093EB003091ED001C
:104820003D7F3093ED003091EB0031603093EB0031
:104830007093EC002093ED005093F0002091EE0077
:1048400027FDE5CF80E008958091A00287FF13C087
:104850008091E80082FF06C08091E8008B7780930A
:10486000E80004C080919F028111F2CF08958091E9
:104870009F028823D9F38091E80080FFF8CF8091D0
:10488000E8008E77ECCF2091E4003091E50095E6CA
:10489000A9012091EC00822F817020FF06C0809139
:1048A000E80080FF06C080E008952091E80022FD26
:1048B0001AC080919F02882389F0853089F0809109
:1048C000EB0085FD0FC02091E4003091E500421718
:1048D0005307F9F29150E1F684E0089582E00895DB
:1048E00083E0089581E008950E94E2240E94EA2472
:1048F000E0EEF0E0808181608083E8EDF0E080818F
:104900008F77808319BCA7EDB0E08C918E7F8C935C
:1049100080818F7E808310929E0208950F931F9353
:10492000CF93DF930E94E2240E94EA24C8EDD0E0F6
:1049300088818F77888388818068888388818F7D4C
:10494000888319BC10929F0210929B0210929D02C4
:1049500010929C0200EE10E0F80180818B7F808332
:1049600088818160888342E060E080E00E94F023DB
:10497000E1EEF0E080818E7F8083E2EEF0E08081E6
:1049800081608083808188608083F80180818E7F50
:104990008083888180618883DF91CF911F910F91FF
:1049A0000895E8EDF0E080818F7E8083E7EDF0E010
:1049B00080818160808384E082BF81E080939E0259
:1049C0000C948E24E8EDF0E080818E7F808310923D
:1049D000E20008951092DA001092E10008951F920B
:1049E0000F920FB60F9211242F933F934F935F9323
:1049F0006F937F938F939F93AF93BF93EF93FF93A7
:104A00008091E10082FF0BC08091E20082FF07C02D
:104A10008091E1008B7F8093E1000E94502780917C
:104A2000DA0080FF19C08091D80080FF15C0809106
:104A3000DA008E7F8093DA008091D90080FF94C0E5
:104A400080E189BD82E189BD09B400FEFDCF81E02E
:104A500080939F020E946F218091E10080FF19C026
:104A60008091E20080FF15C08091E2008E7F8093EC
:104A7000E2008091E20080618093E2008091D800A2
:104A800080628093D80019BC85E080939F020E94C9
:104A900081218091E10084FF29C08091E20084FFA0
:104AA00025C080E189BD82E189BD09B400FEFDCF4A
:104AB0008091D8008F7D8093D8008091E1008F7E17
:104AC0008093E1008091E2008F7E8093E2008091EC
:104AD000E20081608093E20080919B02882309F4C8
:104AE00049C084E080939F020E9482218091E1006E
:104AF00083FF29C08091E20083FF25C08091E100FF
:104B0000877F8093E10082E080939F0210929B0256
:104B10008091E1008E7F8093E1008091E2008E7FA2
:104B20008093E2008091E20080618093E20042E0A5
:104B300060E080E00E94F0238091F0008860809324
:104B4000F0000E948021FF91EF91BF91AF919F9162
:104B50008F917F916F915F914F913F912F910F9026
:104B60000FBE0F901F90189519BC10929F020E94C3
:104B70007D2172CF8091E30087FD02C081E0B2CF3A
:104B800083E0B0CF1F920F920FB60F9211242F9394
:104B90003F934F935F936F937F938F939F93AF93C5
:104BA000BF93CF93DF93EF93FF93D091E900DF7032
:104BB0008091EC00C82FC17080FDC0E81092E90020
:104BC0008091F000877F8093F00078940E94062601
:104BD0001092E9008091F00088608093F000CD2B66
:104BE000CF70C093E900FF91EF91DF91CF91BF911A
:104BF000AF919F918F917F916F915F914F913F9175
:104C00002F910F900FBE0F901F9018951F93CF9369
:104C1000DF93CDB7DEB7AA970FB6F894DEBF0FBE0D
:104C2000CDBF80EA92E0FC0101962091F100208343
:104C300022E0883A9207B9F70E9498218091E80013
:104C400083FF16C18091A0029091A1029A3008F0D2
:104C50000FC1E92FF0E0EB5DF64D0C94B1288038E0
:104C600081F0823809F004C18091A4028F70809392
:104C7000E9008091EB0085FB882780F91092E9001C
:104C800006C080919C0290919D029111826090914A
:104C9000E800977F9093E8008093F1001092F10074
:104CA0008091E8008E77E0C0882309F4CEC082307E
:104CB00009F0DEC08091A2028111D1C08091A402CE
:104CC0008F7009F4D5C08093E9002091EB0020FF9C
:104CD000C6C0933031F48091EB0080628093EB008A
:104CE000BEC09091EB0090619093EB0021E030E02A
:104CF00001C0220F8A95EAF72093EA001092EA0099
:104D00008091EB008860EACF8111B2C01091A202BD
:104D10001F778091E3008078812B8093E30080915E
:104D2000E800877F8093E8000E9424248091E800B7
:104D300080FFFCCF8091E30080688093E30082E0F5
:104D4000111183E080939F0293C08058823008F055
:104D50008FC08091A2029091A3028C3D23E0920724
:104D6000A1F583E08A838AE289834FB7F894DE0154
:104D7000139620E03EE051E2E32FF0E0509357001D
:104D8000E49120FF03C0E295EF703F5FEF708E2F3C
:104D900090E0EA30C0F0C7968D939D932F5F243149
:104DA00059F74FBF8091E800877F8093E8006AE25F
:104DB00070E0CE0101960E943B238091E8008B7742
:104DC0008093E80055C0C096E7CFAE014F5F5F4FBC
:104DD0006091A4020E948022BC01892B09F448C082
:104DE0008091E800877F8093E80089819A810E9402
:104DF0009523E3CF8038E1F58091E800877F8093A9
:104E0000E80080919B028093F1004ACF811130C06D
:104E10009091A202923060F58091E800877F8093A4
:104E2000E80090939B020E94242480919B02882397
:104E300011F084E005C08091E30087FDFACF81E0A6
:104E400080939F020E94842113C08091A20281302E
:104E500079F481E0933009F080E080939D02109214
:104E6000E9008091E800877F8093E8000E94242475
:104E70008091E80083FF0AC08091E800877F8093DB
:104E8000E8008091EB0080628093EB00AA960FB659
:104E9000F894DEBF0FBECDBFDF91CF911F91089573
:104EA0000895CF9380919F028823A1F0C091E900DB
:104EB000CF709091EC00892F817090FD80E8C82B15
:104EC0001092E9008091E80083FD0E940626CF70D1
:104ED000C093E900CF9108950E9473276894B1119F
:104EE0000C94022808950E94E72788F09F5798F0B5
:104EF000B92F9927B751B0F0E1F0660F771F881FDF
:104F0000991F1AF0BA95C9F714C0B13091F00E94F8
:104F10000128B1E008950C940128672F782F882785
:104F2000B85F39F0B93FCCF3869577956795B3951F
:104F3000D9F73EF490958095709561957F4F8F4F8E
:104F40009F4F0895E89409C097FB3EF49095809593
:104F5000709561957F4F8F4F9F4F9923A9F0F92F3F
:104F600096E9BB279395F695879577956795B795BD
:104F7000F111F8CFFAF4BB0F11F460FF1BC06F5FA3
:104F80007F4F8F4F9F4F16C0882311F096E911C0B5
:104F9000772321F09EE8872F762F05C0662371F0D6
:104FA00096E8862F70E060E02AF09A95660F771FEA
:104FB000881FDAF7880F9695879597F9089557FD1A
:104FC0009058440F551F59F05F3F71F04795880F77
:104FD00097FB991F61F09F3F79F08795089512160E
:104FE00013061406551FF2CF4695F1DF08C01616BA
:104FF00017061806991FF1CF86957105610508946B
:105000000895E894BB2766277727CB0197F9089581
:105010000E941B280C948C280E947E2838F00E9445
:10502000852820F0952311F00C9475280C947B288A
:1050300011240C9402280E94DF2770F3959FC1F37E
:10504000950F50E0551F629FF001729FBB27F00D36
:10505000B11D639FAA27F00DB11DAA1F649F66278B
:10506000B00DA11D661F829F2227B00DA11D621FDA
:10507000739FB00DA11D621F839FA00D611D221F94
:10508000749F3327A00D611D231F849F600D211D78
:10509000822F762F6A2F11249F5750409AF0F1F0FB
:1050A00088234AF0EE0FFF1FBB1F661F771F881F64
:1050B00091505040A9F79E3F510580F00C947528FF
:1050C0000C9402285F3FE4F3983ED4F386957795DD
:1050D0006795B795F795E7959F5FC1F7FE2B880F0A
:1050E000911D9695879597F9089597F99F6780E8A0
:1050F00070E060E008959FEF80EC089500240A942A
:105100001616170618060906089500240A941216A2
:105110001306140605060895092E0394000C11F4D5
:10512000882352F0BB0F40F4BF2B11F460FF04C082
:105130006F5F7F4F8F4F9F4F089597FB072E16F499
:10514000009407D077FD09D00E94B72807FC05D04E
:105150003EF4909581959F4F0895709561957F4F8E
:105160000895EE0FFF1F0590F491E02D0994AA1BFE
:10517000BB1B51E107C0AA1FBB1FA617B70710F042
:10518000A61BB70B881F991F5A95A9F78095909574
:10519000BC01CD010895F999FECF92BD81BDF89A69
:1051A000992780B50895A8E1B0E042E050E00C9462
:1051B000F328262FF999FECF92BD81BDF89A019769
:1051C00000B4021639F01FBA20BD0FB6F894FA9A4F
:1051D000F99A0FBE08950196272F0E94DA280C94A1
:1051E000D928DC01CB01FC01F999FECF06C0F2BD44
:1051F000E1BDF89A319600B40D9241505040B8F795
:105200000895F894FFCFCE0ADA0ADE0AE20AE60A27
:10521000EA0AEE0AF20AF60AFA0AFE0A020B060B7C
:105220000A0B0E0B120B160B1A0BE911E9114112A6
:1052300041128512A11219121912AC12191274130B
:105240007413DF1319121912E8132F265426382766
:0E525000542638278426A5263827FA26062756
:10525E0045022808140A321E8C201C21F920C22077
:10526E008F20013637606162636465666790919244
:10527E009394959697C0C1C2C3C43031323334353E
:10528E00404D363957130A13D4129B122E12471261
:04529E00601279120F
:00000001FF
